{
  "_format": "hh-sol-artifact-1",
  "contractName": "PancakeFlashSwap",
  "sourceName": "contracts/PancakeFlashSwap.sol",
  "abi": [
    {
      "inputs": [
        {
          "internalType": "uint256",
          "name": "input",
          "type": "uint256"
        },
        {
          "internalType": "uint256",
          "name": "output",
          "type": "uint256"
        }
      ],
      "name": "checkProfitability",
      "outputs": [
        {
          "internalType": "bool",
          "name": "",
          "type": "bool"
        }
      ],
      "stateMutability": "pure",
      "type": "function"
    },
    {
      "inputs": [
        {
          "internalType": "address",
          "name": "_tradeToken1",
          "type": "address"
        },
        {
          "internalType": "address",
          "name": "_tradeToken2",
          "type": "address"
        },
        {
          "internalType": "address",
          "name": "_tradeToken3",
          "type": "address"
        },
        {
          "internalType": "uint256",
          "name": "_amount",
          "type": "uint256"
        }
      ],
      "name": "checkTriangularTradeProfitabilityOnBlockCall",
      "outputs": [
        {
          "internalType": "bool",
          "name": "",
          "type": "bool"
        }
      ],
      "stateMutability": "view",
      "type": "function"
    },
    {
      "inputs": [
        {
          "internalType": "address",
          "name": "_owner",
          "type": "address"
        },
        {
          "internalType": "address",
          "name": "_token",
          "type": "address"
        },
        {
          "internalType": "uint256",
          "name": "_amount",
          "type": "uint256"
        }
      ],
      "name": "fundFlashContract",
      "outputs": [],
      "stateMutability": "nonpayable",
      "type": "function"
    },
    {
      "inputs": [
        {
          "internalType": "address",
          "name": "_token",
          "type": "address"
        }
      ],
      "name": "getFlashContractBalance",
      "outputs": [
        {
          "internalType": "uint256",
          "name": "",
          "type": "uint256"
        }
      ],
      "stateMutability": "view",
      "type": "function"
    },
    {
      "inputs": [
        {
          "internalType": "address",
          "name": "_token0",
          "type": "address"
        },
        {
          "internalType": "address",
          "name": "_token1",
          "type": "address"
        }
      ],
      "name": "getPairBalance",
      "outputs": [
        {
          "internalType": "uint256",
          "name": "",
          "type": "uint256"
        },
        {
          "internalType": "uint256",
          "name": "",
          "type": "uint256"
        },
        {
          "internalType": "uint256",
          "name": "",
          "type": "uint256"
        },
        {
          "internalType": "uint256",
          "name": "",
          "type": "uint256"
        }
      ],
      "stateMutability": "view",
      "type": "function"
    },
    {
      "inputs": [
        {
          "internalType": "address",
          "name": "_sender",
          "type": "address"
        },
        {
          "internalType": "uint256",
          "name": "_amount0",
          "type": "uint256"
        },
        {
          "internalType": "uint256",
          "name": "_amount1",
          "type": "uint256"
        },
        {
          "internalType": "bytes",
          "name": "_data",
          "type": "bytes"
        }
      ],
      "name": "pancakeCall",
      "outputs": [],
      "stateMutability": "nonpayable",
      "type": "function"
    },
    {
      "inputs": [
        {
          "internalType": "address",
          "name": "_tokenBorrow",
          "type": "address"
        },
        {
          "internalType": "address",
          "name": "_tokenBaseBorrow",
          "type": "address"
        },
        {
          "internalType": "address",
          "name": "_trade1TOken",
          "type": "address"
        },
        {
          "internalType": "address",
          "name": "_trade2Token",
          "type": "address"
        },
        {
          "internalType": "uint256",
          "name": "_amount",
          "type": "uint256"
        }
      ],
      "name": "startLoan",
      "outputs": [],
      "stateMutability": "nonpayable",
      "type": "function"
    }
  ],
  "bytecode": "0x60806040526104b0420160005534801561001857600080fd5b50612f0a806100286000396000f3fe608060405234801561001057600080fd5b506004361061007d5760003560e01c806371b227e21161005b57806371b227e214610198578063848008121461023e5780639ada9570146102eb578063fbd5bc80146103995761007d565b806328e97fcd146100825780636606bdb5146100da578063696d56a514610148575b600080fd5b6100c46004803603602081101561009857600080fd5b81019080803573ffffffffffffffffffffffffffffffffffffffff169060200190929190505050610426565b6040518082815260200191505060405180910390f35b610146600480360360608110156100f057600080fd5b81019080803573ffffffffffffffffffffffffffffffffffffffff169060200190929190803573ffffffffffffffffffffffffffffffffffffffff169060200190929190803590602001909291905050506104e7565b005b61017e6004803603604081101561015e57600080fd5b8101908080359060200190929190803590602001909291905050506105e3565b604051808215151515815260200191505060405180910390f35b610224600480360360808110156101ae57600080fd5b81019080803573ffffffffffffffffffffffffffffffffffffffff169060200190929190803573ffffffffffffffffffffffffffffffffffffffff169060200190929190803573ffffffffffffffffffffffffffffffffffffffff16906020019092919080359060200190929190505050610603565b604051808215151515815260200191505060405180910390f35b6102e96004803603608081101561025457600080fd5b81019080803573ffffffffffffffffffffffffffffffffffffffff1690602001909291908035906020019092919080359060200190929190803590602001906401000000008111156102a557600080fd5b8201836020820111156102b757600080fd5b803590602001918460018302840111640100000000831117156102d957600080fd5b9091929391929390505050610dbd565b005b610397600480360360a081101561030157600080fd5b81019080803573ffffffffffffffffffffffffffffffffffffffff169060200190929190803573ffffffffffffffffffffffffffffffffffffffff169060200190929190803573ffffffffffffffffffffffffffffffffffffffff169060200190929190803573ffffffffffffffffffffffffffffffffffffffff169060200190929190803590602001909291905050506113a4565b005b6103fb600480360360408110156103af57600080fd5b81019080803573ffffffffffffffffffffffffffffffffffffffff169060200190929190803573ffffffffffffffffffffffffffffffffffffffff169060200190929190505050611a07565b6040518085815260200184815260200183815260200182815260200194505050505060405180910390f35b60008173ffffffffffffffffffffffffffffffffffffffff166370a08231306040518263ffffffff1660e01b8152600401808273ffffffffffffffffffffffffffffffffffffffff1673ffffffffffffffffffffffffffffffffffffffff16815260200191505060206040518083038186803b1580156104a557600080fd5b505afa1580156104b9573d6000803e3d6000fd5b505050506040513d60208110156104cf57600080fd5b81019080805190602001909291905050509050919050565b8173ffffffffffffffffffffffffffffffffffffffff166323b872dd8430846040518463ffffffff1660e01b8152600401808473ffffffffffffffffffffffffffffffffffffffff1673ffffffffffffffffffffffffffffffffffffffff1681526020018373ffffffffffffffffffffffffffffffffffffffff1673ffffffffffffffffffffffffffffffffffffffff1681526020018281526020019350505050602060405180830381600087803b1580156105a257600080fd5b505af11580156105b6573d6000803e3d6000fd5b505050506040513d60208110156105cc57600080fd5b810190808051906020019092919050505050505050565b6000808383116105f45760006105f7565b60015b90508091505092915050565b60006060600267ffffffffffffffff8111801561061f57600080fd5b5060405190808252806020026020018201604052801561064e5781602001602082028036833780820191505090505b5090506060600267ffffffffffffffff8111801561066b57600080fd5b5060405190808252806020026020018201604052801561069a5781602001602082028036833780820191505090505b5090506060600267ffffffffffffffff811180156106b757600080fd5b506040519080825280602002602001820160405280156106e65781602001602082028036833780820191505090505b509050600080905088846000815181106106fc57fe5b602002602001019073ffffffffffffffffffffffffffffffffffffffff16908173ffffffffffffffffffffffffffffffffffffffff1681525050878460018151811061074457fe5b602002602001019073ffffffffffffffffffffffffffffffffffffffff16908173ffffffffffffffffffffffffffffffffffffffff1681525050878360008151811061078c57fe5b602002602001019073ffffffffffffffffffffffffffffffffffffffff16908173ffffffffffffffffffffffffffffffffffffffff168152505086836001815181106107d457fe5b602002602001019073ffffffffffffffffffffffffffffffffffffffff16908173ffffffffffffffffffffffffffffffffffffffff1681525050868260008151811061081c57fe5b602002602001019073ffffffffffffffffffffffffffffffffffffffff16908173ffffffffffffffffffffffffffffffffffffffff1681525050888260018151811061086457fe5b602002602001019073ffffffffffffffffffffffffffffffffffffffff16908173ffffffffffffffffffffffffffffffffffffffff168152505060007310ed43c718714eb63d5aa57b78b54704e256024e73ffffffffffffffffffffffffffffffffffffffff1663d06ca61f88876040518363ffffffff1660e01b81526004018083815260200180602001828103825283818151815260200191508051906020019060200280838360005b8381101561092a57808201518184015260208101905061090f565b50505050905001935050505060006040518083038186803b15801561094e57600080fd5b505afa158015610962573d6000803e3d6000fd5b505050506040513d6000823e3d601f19601f82011682018060405250602081101561098c57600080fd5b81019080805160405193929190846401000000008211156109ac57600080fd5b838201915060208201858111156109c257600080fd5b82518660208202830111640100000000821117156109df57600080fd5b8083526020830192505050908051906020019060200280838360005b83811015610a165780820151818401526020810190506109fb565b50505050905001604052505050600181518110610a2f57fe5b6020026020010151905060007310ed43c718714eb63d5aa57b78b54704e256024e73ffffffffffffffffffffffffffffffffffffffff1663d06ca61f83876040518363ffffffff1660e01b81526004018083815260200180602001828103825283818151815260200191508051906020019060200280838360005b83811015610ac5578082015181840152602081019050610aaa565b50505050905001935050505060006040518083038186803b158015610ae957600080fd5b505afa158015610afd573d6000803e3d6000fd5b505050506040513d6000823e3d601f19601f820116820180604052506020811015610b2757600080fd5b8101908080516040519392919084640100000000821115610b4757600080fd5b83820191506020820185811115610b5d57600080fd5b8251866020820283011164010000000082111715610b7a57600080fd5b8083526020830192505050908051906020019060200280838360005b83811015610bb1578082015181840152602081019050610b96565b50505050905001604052505050600181518110610bca57fe5b6020026020010151905060007310ed43c718714eb63d5aa57b78b54704e256024e73ffffffffffffffffffffffffffffffffffffffff1663d06ca61f83876040518363ffffffff1660e01b81526004018083815260200180602001828103825283818151815260200191508051906020019060200280838360005b83811015610c60578082015181840152602081019050610c45565b50505050905001935050505060006040518083038186803b158015610c8457600080fd5b505afa158015610c98573d6000803e3d6000fd5b505050506040513d6000823e3d601f19601f820116820180604052506020811015610cc257600080fd5b8101908080516040519392919084640100000000821115610ce257600080fd5b83820191506020820185811115610cf857600080fd5b8251866020820283011164010000000082111715610d1557600080fd5b8083526020830192505050908051906020019060200280838360005b83811015610d4c578082015181840152602081019050610d31565b50505050905001604052505050600181518110610d6557fe5b60200260200101519050600060016103e560038c0281610d8157fe5b040190506000610d9a828c611f1b90919063ffffffff16565b905080831115610da957600195505b859950505050505050505050949350505050565b60003373ffffffffffffffffffffffffffffffffffffffff16630dfe16816040518163ffffffff1660e01b815260040160206040518083038186803b158015610e0557600080fd5b505afa158015610e19573d6000803e3d6000fd5b505050506040513d6020811015610e2f57600080fd5b8101908080519060200190929190505050905060003373ffffffffffffffffffffffffffffffffffffffff1663d21220a76040518163ffffffff1660e01b815260040160206040518083038186803b158015610e8a57600080fd5b505afa158015610e9e573d6000803e3d6000fd5b505050506040513d6020811015610eb457600080fd5b81019080805190602001909291905050509050600073ca143ce32fe78f1f7019d7d551a6402fc5350c7373ffffffffffffffffffffffffffffffffffffffff1663e6a4390584846040518363ffffffff1660e01b8152600401808373ffffffffffffffffffffffffffffffffffffffff1673ffffffffffffffffffffffffffffffffffffffff1681526020018273ffffffffffffffffffffffffffffffffffffffff1673ffffffffffffffffffffffffffffffffffffffff1681526020019250505060206040518083038186803b158015610f8e57600080fd5b505afa158015610fa2573d6000803e3d6000fd5b505050506040513d6020811015610fb857600080fd5b810190808051906020019092919050505090503373ffffffffffffffffffffffffffffffffffffffff168173ffffffffffffffffffffffffffffffffffffffff161461106c576040517f08c379a00000000000000000000000000000000000000000000000000000000081526004018080602001828103825260138152602001807f706f6f6c20646f6573206e6f742065786973740000000000000000000000000081525060200191505060405180910390fd5b3073ffffffffffffffffffffffffffffffffffffffff168873ffffffffffffffffffffffffffffffffffffffff16146110f0576040517f08c379a0000000000000000000000000000000000000000000000000000000008152600401808060200182810382526029815260200180612e4c6029913960400191505060405180910390fd5b6000806000806000898960a081101561110857600080fd5b81019080803573ffffffffffffffffffffffffffffffffffffffff16906020019092919080359060200190929190803573ffffffffffffffffffffffffffffffffffffffff169060200190929190803573ffffffffffffffffffffffffffffffffffffffff169060200190929190803573ffffffffffffffffffffffffffffffffffffffff16906020019092919050505094509450945094509450600060016103e560038702816111b557fe5b0401905060006111ce8287611f1b90919063ffffffff16565b90506000808f116111df578d6111e1565b8e5b905060006111f0898784611fa3565b905060006111ff878784611fa3565b9050600061120e878c84611fa3565b9050600061121c86836105e3565b905080611291576040517f08c379a00000000000000000000000000000000000000000000000000000000081526004018080602001828103825260148152602001807f5472616465206e6f742070726f66697461626c6500000000000000000000000081525060200191505060405180910390fd5b80156113635760008c90508073ffffffffffffffffffffffffffffffffffffffff1663a9059cbb8c8986036040518363ffffffff1660e01b8152600401808373ffffffffffffffffffffffffffffffffffffffff1673ffffffffffffffffffffffffffffffffffffffff16815260200182815260200192505050602060405180830381600087803b15801561132557600080fd5b505af1158015611339573d6000803e3d6000fd5b505050506040513d602081101561134f57600080fd5b810190808051906020019092919050505050505b61138e8d878e73ffffffffffffffffffffffffffffffffffffffff166126a79092919063ffffffff16565b5050505050505050505050505050505050505050565b6114037310ed43c718714eb63d5aa57b78b54704e256024e7fffffffffffffffffffffffffffffffffffffffffffffffffffffffffffffffff8573ffffffffffffffffffffffffffffffffffffffff1661275f9092919063ffffffff16565b6114627310ed43c718714eb63d5aa57b78b54704e256024e7fffffffffffffffffffffffffffffffffffffffffffffffffffffffffffffffff8473ffffffffffffffffffffffffffffffffffffffff1661275f9092919063ffffffff16565b6114c17310ed43c718714eb63d5aa57b78b54704e256024e7fffffffffffffffffffffffffffffffffffffffffffffffffffffffffffffffff8773ffffffffffffffffffffffffffffffffffffffff1661275f9092919063ffffffff16565b600073ca143ce32fe78f1f7019d7d551a6402fc5350c7373ffffffffffffffffffffffffffffffffffffffff1663e6a4390587876040518363ffffffff1660e01b8152600401808373ffffffffffffffffffffffffffffffffffffffff1673ffffffffffffffffffffffffffffffffffffffff1681526020018273ffffffffffffffffffffffffffffffffffffffff1673ffffffffffffffffffffffffffffffffffffffff1681526020019250505060206040518083038186803b15801561158857600080fd5b505afa15801561159c573d6000803e3d6000fd5b505050506040513d60208110156115b257600080fd5b81019080805190602001909291905050509050600073ffffffffffffffffffffffffffffffffffffffff168173ffffffffffffffffffffffffffffffffffffffff161415611668576040517f08c379a00000000000000000000000000000000000000000000000000000000081526004018080602001828103825260128152602001807f706f6f6c20646f65736e2774206578697374000000000000000000000000000081525060200191505060405180910390fd5b60008173ffffffffffffffffffffffffffffffffffffffff16630dfe16816040518163ffffffff1660e01b815260040160206040518083038186803b1580156116b057600080fd5b505afa1580156116c4573d6000803e3d6000fd5b505050506040513d60208110156116da57600080fd5b8101908080519060200190929190505050905060008273ffffffffffffffffffffffffffffffffffffffff1663d21220a76040518163ffffffff1660e01b815260040160206040518083038186803b15801561173557600080fd5b505afa158015611749573d6000803e3d6000fd5b505050506040513d602081101561175f57600080fd5b8101908080519060200190929190505050905060008273ffffffffffffffffffffffffffffffffffffffff168973ffffffffffffffffffffffffffffffffffffffff16146117ae5760006117b0565b845b905060008273ffffffffffffffffffffffffffffffffffffffff168a73ffffffffffffffffffffffffffffffffffffffff16146117ee5760006117f0565b855b905060608a87338b8b604051602001808673ffffffffffffffffffffffffffffffffffffffff1673ffffffffffffffffffffffffffffffffffffffff1681526020018581526020018473ffffffffffffffffffffffffffffffffffffffff1673ffffffffffffffffffffffffffffffffffffffff1681526020018373ffffffffffffffffffffffffffffffffffffffff1673ffffffffffffffffffffffffffffffffffffffff1681526020018273ffffffffffffffffffffffffffffffffffffffff1673ffffffffffffffffffffffffffffffffffffffff1681526020019550505050505060405160208183030381529060405290508573ffffffffffffffffffffffffffffffffffffffff1663022c0d9f848430856040518563ffffffff1660e01b8152600401808581526020018481526020018373ffffffffffffffffffffffffffffffffffffffff1673ffffffffffffffffffffffffffffffffffffffff16815260200180602001828103825283818151815260200191508051906020019080838360005b83811015611993578082015181840152602081019050611978565b50505050905090810190601f1680156119c05780820380516001836020036101000a031916815260200191505b5095505050505050600060405180830381600087803b1580156119e257600080fd5b505af11580156119f6573d6000803e3d6000fd5b505050505050505050505050505050565b600080600080600073ca143ce32fe78f1f7019d7d551a6402fc5350c7373ffffffffffffffffffffffffffffffffffffffff1663e6a4390588886040518363ffffffff1660e01b8152600401808373ffffffffffffffffffffffffffffffffffffffff1673ffffffffffffffffffffffffffffffffffffffff1681526020018273ffffffffffffffffffffffffffffffffffffffff1673ffffffffffffffffffffffffffffffffffffffff1681526020019250505060206040518083038186803b158015611ad457600080fd5b505afa158015611ae8573d6000803e3d6000fd5b505050506040513d6020811015611afe57600080fd5b8101908080519060200190929190505050905060008773ffffffffffffffffffffffffffffffffffffffff166370a082318373ffffffffffffffffffffffffffffffffffffffff16630dfe16816040518163ffffffff1660e01b815260040160206040518083038186803b158015611b7557600080fd5b505afa158015611b89573d6000803e3d6000fd5b505050506040513d6020811015611b9f57600080fd5b81019080805190602001909291905050506040518263ffffffff1660e01b8152600401808273ffffffffffffffffffffffffffffffffffffffff1673ffffffffffffffffffffffffffffffffffffffff16815260200191505060206040518083038186803b158015611c1057600080fd5b505afa158015611c24573d6000803e3d6000fd5b505050506040513d6020811015611c3a57600080fd5b8101908080519060200190929190505050905060008773ffffffffffffffffffffffffffffffffffffffff166370a082318473ffffffffffffffffffffffffffffffffffffffff1663d21220a76040518163ffffffff1660e01b815260040160206040518083038186803b158015611cb157600080fd5b505afa158015611cc5573d6000803e3d6000fd5b505050506040513d6020811015611cdb57600080fd5b81019080805190602001909291905050506040518263ffffffff1660e01b8152600401808273ffffffffffffffffffffffffffffffffffffffff1673ffffffffffffffffffffffffffffffffffffffff16815260200191505060206040518083038186803b158015611d4c57600080fd5b505afa158015611d60573d6000803e3d6000fd5b505050506040513d6020811015611d7657600080fd5b8101908080519060200190929190505050905060008973ffffffffffffffffffffffffffffffffffffffff166370a08231856040518263ffffffff1660e01b8152600401808273ffffffffffffffffffffffffffffffffffffffff1673ffffffffffffffffffffffffffffffffffffffff16815260200191505060206040518083038186803b158015611e0857600080fd5b505afa158015611e1c573d6000803e3d6000fd5b505050506040513d6020811015611e3257600080fd5b8101908080519060200190929190505050905060008a73ffffffffffffffffffffffffffffffffffffffff166370a08231306040518263ffffffff1660e01b8152600401808273ffffffffffffffffffffffffffffffffffffffff1673ffffffffffffffffffffffffffffffffffffffff16815260200191505060206040518083038186803b158015611ec457600080fd5b505afa158015611ed8573d6000803e3d6000fd5b505050506040513d6020811015611eee57600080fd5b81019080805190602001909291905050509050838383839850985098509850505050505092959194509250565b600080828401905083811015611f99576040517f08c379a000000000000000000000000000000000000000000000000000000000815260040180806020018281038252601b8152602001807f536166654d6174683a206164646974696f6e206f766572666c6f77000000000081525060200191505060405180910390fd5b8091505092915050565b60008073ca143ce32fe78f1f7019d7d551a6402fc5350c7373ffffffffffffffffffffffffffffffffffffffff1663e6a4390586866040518363ffffffff1660e01b8152600401808373ffffffffffffffffffffffffffffffffffffffff1673ffffffffffffffffffffffffffffffffffffffff1681526020018273ffffffffffffffffffffffffffffffffffffffff1673ffffffffffffffffffffffffffffffffffffffff1681526020019250505060206040518083038186803b15801561206b57600080fd5b505afa15801561207f573d6000803e3d6000fd5b505050506040513d602081101561209557600080fd5b81019080805190602001909291905050509050600073ffffffffffffffffffffffffffffffffffffffff168173ffffffffffffffffffffffffffffffffffffffff16141561214b576040517f08c379a00000000000000000000000000000000000000000000000000000000081526004018080602001828103825260158152602001807f5468657265206973206e6f204c6971756964697479000000000000000000000081525060200191505060405180910390fd5b6060600267ffffffffffffffff8111801561216557600080fd5b506040519080825280602002602001820160405280156121945781602001602082028036833780820191505090505b50905085816000815181106121a557fe5b602002602001019073ffffffffffffffffffffffffffffffffffffffff16908173ffffffffffffffffffffffffffffffffffffffff168152505084816001815181106121ed57fe5b602002602001019073ffffffffffffffffffffffffffffffffffffffff16908173ffffffffffffffffffffffffffffffffffffffff168152505060007310ed43c718714eb63d5aa57b78b54704e256024e73ffffffffffffffffffffffffffffffffffffffff1663d06ca61f86846040518363ffffffff1660e01b81526004018083815260200180602001828103825283818151815260200191508051906020019060200280838360005b838110156122b3578082015181840152602081019050612298565b50505050905001935050505060006040518083038186803b1580156122d757600080fd5b505afa1580156122eb573d6000803e3d6000fd5b505050506040513d6000823e3d601f19601f82011682018060405250602081101561231557600080fd5b810190808051604051939291908464010000000082111561233557600080fd5b8382019150602082018581111561234b57600080fd5b825186602082028301116401000000008211171561236857600080fd5b8083526020830192505050908051906020019060200280838360005b8381101561239f578082015181840152602081019050612384565b505050509050016040525050506001815181106123b857fe5b602002602001015190506124016040518060400160405280601381526020017f616d6f756e74732072657175697265642025730000000000000000000000000081525082612966565b60007310ed43c718714eb63d5aa57b78b54704e256024e73ffffffffffffffffffffffffffffffffffffffff166338ed1739878486306000546040518663ffffffff1660e01b815260040180868152602001858152602001806020018473ffffffffffffffffffffffffffffffffffffffff1673ffffffffffffffffffffffffffffffffffffffff168152602001838152602001828103825285818151815260200191508051906020019060200280838360005b838110156124d05780820151818401526020810190506124b5565b505050509050019650505050505050600060405180830381600087803b1580156124f957600080fd5b505af115801561250d573d6000803e3d6000fd5b505050506040513d6000823e3d601f19601f82011682018060405250602081101561253757600080fd5b810190808051604051939291908464010000000082111561255757600080fd5b8382019150602082018581111561256d57600080fd5b825186602082028301116401000000008211171561258a57600080fd5b8083526020830192505050908051906020019060200280838360005b838110156125c15780820151818401526020810190506125a6565b505050509050016040525050506001815181106125da57fe5b602002602001015190506126236040518060400160405280601381526020017f616d6f756e74732072656365697665642025730000000000000000000000000081525082612966565b60008111612699576040517f08c379a000000000000000000000000000000000000000000000000000000000815260040180806020018281038252601c8152602001807f41626f727465642054783a2054726164652072657475726e656420300000000081525060200191505060405180910390fd5b809450505050509392505050565b61275a8363a9059cbb60e01b8484604051602401808373ffffffffffffffffffffffffffffffffffffffff1673ffffffffffffffffffffffffffffffffffffffff16815260200182815260200192505050604051602081830303815290604052907bffffffffffffffffffffffffffffffffffffffffffffffffffffffff19166020820180517bffffffffffffffffffffffffffffffffffffffffffffffffffffffff8381831617835250505050612a6d565b505050565b6000811480612859575060008373ffffffffffffffffffffffffffffffffffffffff1663dd62ed3e30856040518363ffffffff1660e01b8152600401808373ffffffffffffffffffffffffffffffffffffffff1673ffffffffffffffffffffffffffffffffffffffff1681526020018273ffffffffffffffffffffffffffffffffffffffff1673ffffffffffffffffffffffffffffffffffffffff1681526020019250505060206040518083038186803b15801561281c57600080fd5b505afa158015612830573d6000803e3d6000fd5b505050506040513d602081101561284657600080fd5b8101908080519060200190929190505050145b6128ae576040517f08c379a0000000000000000000000000000000000000000000000000000000008152600401808060200182810382526036815260200180612e9f6036913960400191505060405180910390fd5b6129618363095ea7b360e01b8484604051602401808373ffffffffffffffffffffffffffffffffffffffff1673ffffffffffffffffffffffffffffffffffffffff16815260200182815260200192505050604051602081830303815290604052907bffffffffffffffffffffffffffffffffffffffffffffffffffffffff19166020820180517bffffffffffffffffffffffffffffffffffffffffffffffffffffffff8381831617835250505050612a6d565b505050565b612a6982826040516024018080602001838152602001828103825284818151815260200191508051906020019080838360005b838110156129b4578082015181840152602081019050612999565b50505050905090810190601f1680156129e15780820380516001836020036101000a031916815260200191505b5093505050506040516020818303038152906040527f9710a9d0000000000000000000000000000000000000000000000000000000007bffffffffffffffffffffffffffffffffffffffffffffffffffffffff19166020820180517bffffffffffffffffffffffffffffffffffffffffffffffffffffffff8381831617835250505050612b5c565b5050565b6060612acf826040518060400160405280602081526020017f5361666545524332303a206c6f772d6c6576656c2063616c6c206661696c65648152508573ffffffffffffffffffffffffffffffffffffffff16612b859092919063ffffffff16565b9050600081511115612b5757808060200190516020811015612af057600080fd5b8101908080519060200190929190505050612b56576040517f08c379a000000000000000000000000000000000000000000000000000000000815260040180806020018281038252602a815260200180612e75602a913960400191505060405180910390fd5b5b505050565b60008151905060006a636f6e736f6c652e6c6f679050602083016000808483855afa5050505050565b6060612b948484600085612b9d565b90509392505050565b606082471015612bf8576040517f08c379a0000000000000000000000000000000000000000000000000000000008152600401808060200182810382526026815260200180612e266026913960400191505060405180910390fd5b612c0185612d46565b612c73576040517f08c379a000000000000000000000000000000000000000000000000000000000815260040180806020018281038252601d8152602001807f416464726573733a2063616c6c20746f206e6f6e2d636f6e747261637400000081525060200191505060405180910390fd5b600060608673ffffffffffffffffffffffffffffffffffffffff1685876040518082805190602001908083835b60208310612cc35780518252602082019150602081019050602083039250612ca0565b6001836020036101000a03801982511681845116808217855250505050505090500191505060006040518083038185875af1925050503d8060008114612d25576040519150601f19603f3d011682016040523d82523d6000602084013e612d2a565b606091505b5091509150612d3a828286612d59565b92505050949350505050565b600080823b905060008111915050919050565b60608315612d6957829050612e1e565b600083511115612d7c5782518084602001fd5b816040517f08c379a00000000000000000000000000000000000000000000000000000000081526004018080602001828103825283818151815260200191508051906020019080838360005b83811015612de3578082015181840152602081019050612dc8565b50505050905090810190601f168015612e105780820380516001836020036101000a031916815260200191505b509250505060405180910390fd5b939250505056fe416464726573733a20696e73756666696369656e742062616c616e636520666f722063616c6c537761702063616c6c20776173206e6f742063616c6c6564206279207468697320636f6e74726163745361666545524332303a204552433230206f7065726174696f6e20646964206e6f7420737563636565645361666545524332303a20617070726f76652066726f6d206e6f6e2d7a65726f20746f206e6f6e2d7a65726f20616c6c6f77616e6365a2646970667358221220bf99aa1e583fe0503974c0d06119c1f263690c34b8c0796d4c9974fe589b8ef564736f6c63430006060033",
  "linkReferences": {},
  "deployedLinkReferences": {}
}